:020000040000FA
:100000002F288207303431343234333434343534A9
:100010003634373438343934413442344334443458
:10002000453446348207483465346C346C346F345C
:10003000203457346F3472346C34643421340034D7
:1000400082074C34433444342034693473342034CC
:100050004F344E344C3449344E3445340034073038
:100060009F008316850100308500003086008312D2
:100070004C2020081220003A031941287820A00AB9
:1000800039288520A00120082020003A03194B2898
:100090007820A00A43284B28A020A020A0203030A0
:1000A00086008B20A0208B2090208B209020203059
:1000B00086008B2090202830672010306720013088
:1000C0006720063067200C30672088200800A400D5
:1000D000F039860006118B20240EF03986000611B7
:1000E0008B20A2202408FC390319A2200800303EEE
:1000F000A400F039860006158B20240EF039860006
:1001000006158B20A02000000800C03067200034B6
:10011000013067200034861500008611000000348D
:10012000A101A1162116A10B93280800FF30A328D6
:10013000C830A3286430A3283230A3281430A32861
:100140000530A3280130A100C730A2000130A30070
:0E015000A20BAB28A30BA828A10BA4280034F7
:02015E0000346B
:02016000003469
:02400E00183D5B
:00000001FF
