:020000040000FA
:10000000012828206620453054204E30542054309A
:100010005420453054205230542020305420503049
:100020005420413054205330542053305420573002
:1000300054204F3054205230542044305420C0308B
:1000400048200F3048206C20250854209C2023286D
:1000500083160030860083129C209C209C20303028
:10006000860061209C206120A4206120A4202030F3
:1000700086006120A420283048201030482001301C
:100080004820063048200C30482001304820080025
:10009000A200F039860006116120220EF039860098
:1000A00006116120A4200800A200F0398600061580
:1000B0006120220EF039860006156120A420000080
:1000C0000800861500008611000008008316F03035
:1000D00087008312A50108005830A5000714071AED
:1000E0003730871A3430071B3130871B2A3007100E
:1000F0008714071A3830871A3530071B3230871BB0
:10010000303087100715071A3930871A3630071B29
:100110003330871B233007118715071A4130871AA0
:100120004230071B4330871B44308711A5005830ED
:10013000250203196C2808000230A0009F28A00B9C
:0E0140009F28A10B9F280800A00BA4280800F0
:02014E0000347B
:02015000003479
:00000001FF
