:020000040000FA
:100000000128A6204F2170200520E920F020E420BF
:10001000102055214430250203197F2809280800A3
:100020001720252038200330A7004C20080000307E
:10003000D10031309220D10A32309220D10A3330AF
:100040009220D10A343092200800303084000030F1
:10005000D10087208000840AD10A87208000840A8A
:10006000D10A87208000840AD10A872080000800F6
:1000700040308400552125088000D2208521840A43
:10008000041D3A280800403084000008D220852151
:10009000840A041D45280800A70B50286C28080076
:1000A000303084000008A6001030840700082602C3
:1000B000031D612810308402840A041D5228672819
:1000C0000800E9200D21E42038204C20080005110B
:1000D000E9202E217A200800E920852050280800F8
:1000E00083128501831606309F00051085100511C7
:1000F0008312080005148821882105100800851442
:100100008821882185100528080005150800031797
:10011000831251088D0083168C130C1483120C0863
:1001200003130800D000031751088D0050088C00FD
:1001300083168C130C1555308D00AA308D008C144D
:100140000C118C18A12883120313080083160030A9
:100150008600831285218521852130308600DF20AD
:100160008521DF208D21DF208D2120308600DF20BA
:100170008D212830C6201030C6200130C620063020
:10018000C6200C30C6200130C6200800A200F0397D
:1001900086000611DF20220EF03986000611DF20CE
:1001A0008D210800A200F03986000615DF20220EFE
:1001B000F03986000615DF208D2100000800861525
:1001C0000000861100000800C030C6200F30C62095
:1001D00008000130C62085210C30C6208D21080082
:1001E0004530D2204E30D2205430D2204530D2205B
:1001F0005230D2202030D2205030D2204130D22074
:100200005330D2205330D2205730D2204F30D2201A
:100210005230D2204430D22008004930D2204E3013
:10022000D2204330D2204F30D2205230D220523010
:10023000D2204530D2204330D2205430D2202E302C
:10024000D2202030D2205230D2204530D22054301B
:10025000D2205230D2205930D22008004330D22050
:100260004F30D2205230D2205230D2204530D220CE
:100270004330D2205430D22008004130D2204C30BC
:10028000D2204130D2205230D2204D30D2202030E6
:10029000D2204F30D2204E30D220080008008316E2
:1002A000F03087008312A50108005830A50007141C
:1002B000071A3730871A3430071B3130871B2A3032
:1002C00007108714071A3830871A3530071B323069
:1002D000871B303087100715071A3930871A3630D8
:1002E000071B3330871B233007118715071A41304E
:1002F000871A4230071B4330871B44308711A50003
:10030000583025020319552908000230A000882919
:10031000A00B8829A10B88290800A00B8D290800B3
:040320000034003471
:00000001FF
