:020000040000FA
:1000000001284920E02093208720092058307520BE
:1000100008280D201B202F200800303084003130AC
:100020008000840A32308000840A33308000840AE1
:1000300034308000080040308400E620250880002D
:1000400075201621840A041D1D28080040308400F4
:10005000000875201621840A041D28280800303065
:1000600084000008A6001030840700082602031D43
:10007000402810308402840A041D312846280800D4
:100080008C20B02087201B202F2008008C20D1201E
:1000900008008316003086008312162116211621CF
:1000A000303086008220162182201E2182201E21CF
:1000B0002030860082201E212830692010306920DF
:1000C00001306920063069200C3069200130692038
:1000D0000800A200F039860006118220220EF039B5
:1000E0008600061182201E210800A200F039860039
:1000F00006158220220EF0398600061582201E2168
:100100000000080086150000861100000800C030BD
:1001100069200F30692008000130692016210C3059
:1001200069201E210800453075204E30752054305E
:1001300075204530752052307520203075205030A4
:10014000752041307520533075205330752057305D
:1001500075204F30752052307520443075200800CE
:10016000493075204E307520433075204F30752052
:10017000523075205230752045307520433075203F
:10018000543075202E307520203075205230752067
:100190004530752054307520523075205930752007
:1001A0000800433075204F30752052307520523092
:1001B0007520453075204330752054307520080077
:1001C0008316F03087008312A50108005830A5007F
:1001D0000714071A3730871A3430071B3130871B52
:1001E0002A3007108714071A3830871A3530071B52
:1001F0003230871B303087100715071A3930871ABD
:100200003630071B3330871B233007118715071A39
:100210004130871A4230071B4330871B4430871117
:10022000A500583025020319E62808000230A00076
:100230001929A00B1929A10B19290800A00B1E29A7
:020240000800B4
:040242000034003450
:00000001FF
