:020000040000FA
:10000000012839207720C03059200F305920403046
:10001000C00041302520C00A423025204030C000B9
:100020001A206520C00A1A2065207D202508652039
:10003000AD2015280317831240088D0083168C13FA
:100040000C1483120C0803130800B00003174008B7
:100050008D0030088C0083168C130C1555308D00E4
:10006000AA308D008C140C118C18342883120313C1
:1000700008008316003086008312AD20AD20AD202D
:10008000303086007220AD207220B5207220B5205D
:10009000203086007220B520283059201030592099
:1000A00001305920063059200C3059200130592098
:1000B0000800A200F039860006117220220EF039E5
:1000C000860006117220B5200800A200F0398600D3
:1000D00006157220220EF039860006157220B52012
:1000E0000000080086150000861100000800831635
:1000F000F03087008312A50108005830A5000714CE
:10010000071A3730871A3430071B3130871B2A30E3
:1001100007108714071A3830871A3530071B32301A
:10012000871B303087100715071A3930871A363089
:10013000071B3330871B233007118715071A4130FF
:10014000871A4230071B4330871B44308711A500B4
:100150005830250203197D2808000230A000B0287D
:10016000A00BB028A10BB0280800A00BB5280800F0
:040170000034003423
:00000001FF
