:020000040000FA
:100000000128D520F321A0209A2018216C21F92164
:1000100041302502031911204230250203191B200B
:10002000052818211F2113212028F92144302502F9
:100030000319AF281528182187212D226D200800CB
:1000400027203A200330A700A70B4E286A2830301B
:1000500084000030D100B6208000840AD10AB62086
:100060008000840AD10AB6208000840AD10AB62012
:100070008000080040308400F9212508800001211B
:100080002922840A041D3C2808004030840000080E
:1000900001212922840A041D4728080030308400E9
:1000A0000008A6001030840700082602031D5E2801
:1000B00010308402840A041D5028632818213C2132
:1000C00013213A20242805111821281872285D21AF
:1000D000AA2015281821B4204E281821A421132164
:1000E000281420282810BD2113217A201821D62178
:1000F0002D2208003A200030D1004008C120D10A4A
:100100004108C120D10A4208C120D10A4308C120B8
:10011000D10A0130C12008000030D1003130C120A7
:10012000D10A3230C120D10A3330C120D10A343053
:10013000C12008000530D100B62000188C2008002E
:1001400083128501831606309F0005108510051166
:100150008312080005142D222D2205100800851495
:100160002D222D2285100800051508000317831283
:1001700051088D0083168C130C1483120C08031382
:100180000800D000031751088D0050088C0083161A
:100190008C130C1555308D00AA308D008C140C1169
:1001A0008C18D028831203130800831600308600B1
:1001B0008312292229222922303086000E21292269
:1001C0000E2132220E213222203086000E213222D0
:1001D0002830F5201030F5200130F5200630F520CC
:1001E0000C30F5200130F5200800A200F03986001F
:1001F00006110E21220EF039860006110E21322240
:100200000800A200F039860006150E21220EF039F2
:10021000860006150E213222000008008615000017
:10022000861100000800C030F5200F30F5200800CE
:100230000130F52029220C30F5203222080045300B
:1002400001214E300121543001214530012152302D
:100250000121203001215030012141300121533052
:10026000012153300121573001214F3001215230FB
:100270000121443001210800493001214E30012183
:10028000433001214F3001215230012152300121F0
:100290004530012143300121543001212E3001210C
:1002A00020300121523001214530012154300121FB
:1002B00052300121593001210800433001214F30D3
:1002C00001215230012152300121453001214330BA
:1002D000012154300121080020300121203001216A
:1002E0002A3001212A3001215730012145300121D6
:1002F0004C300121433001214F3001214D3001218B
:10030000453001212A3001212A30012108005230D4
:100310000121453001215330012145300121543064
:100320000121203001215030012141300121533081
:10033000012153300121573001214F30012152302A
:1003400001214430012108004F3001214C300121AE
:100350004430012120300121503001214130012160
:100360005330012153300121573001214F300121F9
:10037000523001214430012108004E300121453026
:10038000012157300121203001215030012141301D
:1003900001215330012153300121573001214F30C9
:1003A0000121523001214430012108005230012145
:1003B00045300121533001214530012154300121C4
:1003C00020300121433001214F3001214D300121E6
:1003D000503001214C3001214530012154300121A0
:1003E0004530012108008316F03087008312A501F3
:1003F00008005830A5000714071A3730871A343020
:10040000071B3130871B2A3007108714071A383032
:10041000871A3530071B3230871B3030871007159D
:10042000071A3930871A3630071B3330871B2330C1
:1004300007118715071A4130871A4230071B4330CE
:10044000871B44308711A500583025020319F9296C
:1004500008000230A0002D220800A00B2D2AA10BBD
:0A0460002D2A0800A00B322A080024
:04046A000034003426
:00000001FF
