:020000040000FA
:100000000128DC20FA21A0209A201F21732106223A
:1000100041302502031911204230250203191B200B
:1000200005281F2126211A212028062244302502D6
:100030000319AE2815281F218E213A226D200800B1
:1000400027203A200330A700A70B4E286A2830301B
:1000500084000030D100BD208000840AD10ABD2078
:100060008000840AD10ABD208000840AD10ABD2004
:100070008000080040308400062225088000082106
:100080003622840A041D3C28080040308400000801
:1000900008213622840A041D4728080030308400D5
:1000A0000008A6001030840700082602031D5E2801
:1000B00010308402840A041D502863281F21432124
:1000C0001A213A20242887101F2128187228642119
:1000D000A72015281F21BB204E281F21AB211A2144
:1000E000281420282810C4211A217A201F21DD215C
:1000F0003A2208003A200030D1004008C820D10A36
:100100004108C820D10A4208C820D10A4308C820A3
:10011000D10A0130C82008000030D1003130C82099
:10012000D10A3230C820D10A3330C820D10A343045
:10013000C82008000530D100BD2000188C20080020
:100140008316FF30920007118710831208001F30BA
:1001500095001C3097000630920008000B30950087
:100160002C309700063092003A223A223A2212119D
:1001700017119711080087140800031783125108FC
:100180008D0083168C130C1483120C0803130800C3
:10019000D000031751088D0050088C0083168C1373
:1001A0000C1555308D00AA308D008C140C118C1854
:1001B000D7288312031308008316003086008312A9
:1001C000362236223622303086001521362215217D
:1001D0003F2215213F222030860015213F22283062
:1001E000FC201030FC200130FC200630FC200C30BC
:1001F000FC200130FC200800A200F0398600061126
:100200001521220EF0398600061115213F22080023
:10021000A200F039860006151521220EF03986005D
:10022000061515213F2200000800861500008611E2
:1002300000000800C030FC200F30FC200800013016
:10024000FC2036220C30FC203F22080045300821DB
:100250004E30082154300821453008215230082101
:100260002030082150300821413008215330082126
:1002700053300821573008214F30082152300821CF
:10028000443008210800493008214E30082143300D
:1002900008214F30082152300821523008214530C2
:1002A000082143300821543008212E300821203005
:1002B000082152300821453008215430082152309D
:1002C0000821593008210800433008214F30082107
:1002D000523008215230082145300821433008218E
:1002E00054300821080020300821203008212A300D
:1002F00008212A30082157300821453008214C3088
:100300000821433008214F3008214D300821453065
:1003100008212A3008212A300821080052300821FB
:100320004530082153300821453008215430082138
:100330002030082150300821413008215330082155
:1003400053300821573008214F30082152300821FE
:100350004430082108004F3008214C300821443037
:100360000821203008215030082141300821533025
:10037000082153300821573008214F3008215230CE
:1003800008214430082108004E300821453008215A
:1003900057300821203008215030082141300821F1
:1003A0005330082153300821573008214F3008219D
:1003B00052300821443008210800523008214530CD
:1003C00008215330082145300821543008212030BD
:1003D0000821433008214F3008214D30082150308A
:1003E00008214C300821453008215430082145307F
:1003F000082108008316F030870006309F00003087
:100400008500831285018701A50108005830A500E9
:100410000514071A3730871A3430071B3130871B11
:100420002A3005108514071A3830871A3530071B13
:100430003230871B303085100515071A3930871A7E
:100440003630071B3330871B233005118515071AFB
:100450004130871A4230071B4330871B44308511D7
:10046000A500583025020319062A08000230A00012
:100470003A220800A00B3A2AA10B3A2A0800A00B46
:040480003F2A080007
:04048400003400340C
:00000001FF
