:020000040000FA
:020000000528D1
:040002000034003492
:080008001A2850210521BB203C
:10001000B520D920492198215C21413025020319BE
:1000200029204230250203193420433025020319C8
:1000300039200A280C181D280900D20B2028222854
:100040000C1009000B14071063000B100C100714A0
:10005000090010104921B321442142285C21443079
:1000600025020319C9282E28492100229021872022
:100070000800101049216C2290219021902190219C
:10008000E020080010104A205D200330A700A70BD5
:1000900068288428303084000030D100E4208000BB
:1000A000840AD10AE4208000840AD10AE420800076
:1000B000840AD10AE42080000800403084005C21DA
:1000C0002508800032218C21840A041D5F28080045
:1000D000303084000008A600103084070008260293
:1000E000031D782810308402840A041D6A287D28A4
:1000F0004921D02144215D20472887104921281813
:100100008C28F121C2202E284921D7206828492196
:100110001D224421281442282810362244219520EB
:1001200049214F229021E02008005D200030D100BD
:100130004008EF20D10A4108EF20D10A4208EF2001
:10014000D10A4308EF20D10A0130EF200800003027
:10015000D1003130EF20D10A3230EF20D10A3330D4
:10016000EF20D10A3430EF2008000430D100E42021
:100170000018A72008008316FF309200071187108F
:10018000831208001F3095001C3097000630920043
:1001900008000B3095002C3097000630920090211B
:1001A00090219021121117119711E0200800871457
:1001B000080083160C1483120B178B173030900035
:1001C0000A30D200101408000317831251088D0062
:1001D00083168C130C1483120C0803130800D00030
:1001E000031751088D0050088C0083168C130C15D2
:1001F0008B1355308D00AA308D008C148B170C1189
:100200008C1800298312031308008316013086001E
:1002100083128C218C218C21303086003F218C214F
:100220003F2195213F219521203086003F219521B6
:1002300028302621083026210130262106302621AB
:100240000C3026210130262107140800A200F039C5
:10025000860006113F21220EF039860006113F214B
:1002600095210800A200F039860006153F21220ED4
:10027000F039860006153F219521000008008615FB
:100280000000861100000800C03026210F30262112
:100290000800013026218C210C30262195210800F0
:1002A0008316F030870006309F00003085008312EF
:1002B00085018701A50108005830A5000514071A1B
:1002C0003730871A3430071B3130871B2A3005102E
:1002D0008514071A3830871A3530071B3230871BD0
:1002E000303085100515071A3930871A3630071B4C
:1002F0003330871B233005118515071A4130871AC3
:100300004230071B4330871B44308511A50058300D
:10031000250203195C2908000230A0009021080082
:10032000A00B9029A10B90290800A00B952908008B
:1003300020303221203032212A3032212A3032211D
:1003400057303221453032214C3032214330322176
:100350004F3032214D303221453032212A30322186
:100360002A3032210800453032214E3032215430BB
:10037000322145303221523032212030322150306A
:100380003221413032215330322153303221573023
:1003900032214F3032215230322144303221080094
:1003A000493032214E303221433032214F30322118
:1003B0005230322152303221453032214330322105
:1003C000543032212E30322120303221523032212D
:1003D00045303221543032215230322159303221CD
:1003E0000800433032214F30322152303221523016
:1003F000322145303221433032215430322108003D
:1004000052303221453032215330322145303221B1
:1004100054303221203032215030322141303221CB
:100420005330322153303221573032214F30322174
:10043000523032214430322108004F3032214C30CA
:1004400032214430322120303221503032214130AB
:1004500032215330322153303221573032214F3044
:100460003221523032214430322108004E303221C4
:100470004530322157303221203032215030322164
:100480004130322153303221533032215730322122
:100490004F30322152303221443032210800523064
:1004A000322145303221533032214530322154300F
:1004B000322120303221433032214F3032214D3031
:1004C0003221503032214C303221453032215430EB
:1004D000322145303221080054303221453032215A
:1004E0004330322148303221203032215330322102
:1004F0004F3032214C3032215530322154303221AC
:10050000493032214F3032214E30322153303221A6
:10051000C030262130303221383032213130322182
:100520002D303221323032213230322132303221FC
:1005300037303221323032213230322132303221E2
:020540000800B1
:00000001FF
