:020000040000FA
:1000000001283320712045305F204E305F2054306E
:100010005F2045305F2052305F2020305F2050301D
:100020005F2041305F2053305F2053305F205730D6
:100030005F204F305F2052305F2044305F20C0305F
:1000400053200F3053208316FF3092000711831284
:100050000B3095002C309700063092007F20250849
:100060005F20AF202E288316003086008312AF2039
:10007000AF20AF20303086006C20AF206C20B7203E
:100080006C20B720203086006C20B7202830532009
:100090001030532001305320063053200C305320B1
:1000A000013053200800A200F039860006116C20B0
:1000B000220EF039860006116C20B7200800A2003D
:1000C000F039860006156C20220EF03986000615E0
:1000D0006C20B72000000800861500008611000083
:1000E00008008316F030870083128501870183168C
:1000F00006309F00003085008312A50108005830AB
:10010000A5000514071A3730871A3430071B313021
:10011000871B2A3005108514071A3830871A3530A6
:10012000071B3230871B303085100515071A393010
:10013000871A3630071B3330871B2330051185158E
:10014000071A4130871A4230071B4330871B44305F
:100150008511A5005830250203197F2808000230B8
:10016000A000B228A00BB228A10BB2280800A00B57
:04017000B7280800A4
:04017400003400341F
:00000001FF
