:020000040000FA
:020000000528D1
:040002000034003492
:080008001D28F8201622B72084
:10001000B120861083160C1483120B178B17303007
:1000200090003B218F2122224130250203192520F7
:1000300042302502031930201128D20B2028222813
:100040000C10090063000C10090010103B21422124
:10005000362135282222443025020319C5282A28B2
:100060003B21AA2156228320080010103D20502059
:100070000330A700A70B64288028303084000030AC
:10008000D100D9208000840AD10AD9208000840AB6
:10009000D10AD9208000840AD10AD9208000080022
:1000A0004030840022222508800024215222840A24
:1000B000041D5228080040308400000824215222E8
:1000C000840A041D5D280800303084000008A60062
:1000D0001030840700082602031D742810308402A3
:1000E000840A041D662879283B215F21362150208F
:1000F0003A2887103B21281888288021BE202A28EA
:100100003B21D32064283B21C721362128143528E0
:100110002810E021362191203B21F9215622D520BB
:10012000080050200030D1004008E420D10A4108E6
:10013000E420D10A4208E420D10A4308E420D10A8D
:100140000130E42008000030D1003130E420D10A31
:100150003230E420D10A3330E420D10A3430E420B4
:1001600008000530D100D9200018A320080083160C
:10017000FF30920007118710831208001F3095008E
:100180001C3097000630920008000B3095002C3090
:10019000970006309200562256225622121117114D
:1001A0009711D5200800871408000A30D2001014D7
:1001B00008000317831251088D0083168C130C144A
:1001C00083120C0803130800D000031751088D0098
:1001D00050088C0083168C130C1555308D00AA30F6
:1001E0008D008C140C118C18F32883120313080053
:1001F000831601308600831252225222522230305E
:1002000086003121522231215B2231215B222030B4
:10021000860031215B22283018211030182101304E
:100220001821063018210C3018210130182108003F
:10023000A200F039860006113121220EF039860025
:10024000061131215B220800A200F0398600061554
:100250003121220EF0398600061531215B22000083
:10026000080086150000861100000800C030182123
:100270000F30182108000130182152220C301821AB
:100280005B220800453024214E30242154302421A3
:100290004530242152302421203024215030242183
:1002A000413024215330242153302421573024213C
:1002B0004F30242152302421443024210800493079
:1002C00024214E302421433024214F302421523028
:1002D000242152302421453024214330242154301C
:1002E00024212E3024212030242152302421453055
:1002F0002421543024215230242159302421080053
:10030000433024214F3024215230242152302421E3
:10031000453024214330242154302421080020304A
:100320002421203024212A3024212A30242157302E
:100330002421453024214C302421433024214F30C6
:1003400024214D302421453024212A3024212A30F3
:100350002421080052302421453024215330242107
:1003600045302421543024212030242150302421B0
:10037000413024215330242153302421573024216B
:100380004F302421523024214430242108004F30A2
:1003900024214C3024214430242120302421503089
:1003A000242141302421533024215330242157303B
:1003B00024214F30242152302421443024210800AC
:1003C0004E3024214530242157302421203024214F
:1003D0005030242141302421533024215330242112
:1003E000573024214F3024215230242144302421FD
:1003F0000800523024214530242153302421453037
:1004000024215430242120302421433024214F3012
:1004100024214D302421503024214C3024214530DA
:100420002421543024214530242108008316F03043
:10043000870006309F000030850083128501870108
:10044000A50108005830A5000514071A3730871A8F
:100450003430071B3130871B2A3005108514071AEA
:100460003830871A3530071B3230871B3030851003
:100470000515071A3930871A3630071B3330871BAA
:10048000233005118515071A4130871A4230071BA2
:100490004330871B44308511A500583025020319CD
:1004A000222A08000230A00056220800A00B562A7B
:0C04B000A10B562A0800A00B5B2A0800D4
:00000001FF
